S0140000776972656C65737344414C492E7372656388
S11300000C945A000C949D000C946C000C946C009D
S11300100C946C000C946C000C946C000C946C00AC
S11300200C946C000C946C000C946C000C946C009C
S11300300C946C000C946C000C946C000C946C008C
S11300400C946C000C946C000C946C000C946C007C
S11300500C946C000C946C000C946C000C946C006C
S11300600C946C000C946C000C946C000C946C005C
S11300700C946C000C946C000C946C000C946C004C
S11300800C946C000C946C000C946C000C946C003C
S11300900C946C000C946C000C946C000C946C002C
S11300A00C946C000C946C000C946C000C946C001C
S11300B00C946C0011241FBECFEFD8E0DEBFCDBF7F
S11300C021E0A0E0B1E001C01D92A130B207E1F748
S11300D00E94FC000C941A010C940000E5ECF0E082
S11300E080818083E4ECF0E0808188668083E1ECA9
S11300F0F0E0808188608083E2ECF0E080818660BB
S113010080830895E0ECF0E090819923E9F38093F3
S1130110C6000895ECE7F0E08081806480838081EC
S1130120807F8083EAE7F0E080818F6A8083EBE759
S1130130F0E08081887F808308951F920F920FB62C
S11301400F9211242F933F934F935F936F937F9359
S11301508F939F93AF93BF93EF93FF93E89880910E
S113016000018823C9F08EEF0E9482002FEF80E700
S113017092E0215080409040E1F700C000008EEFF3
S11301800E9482002FEF80E792E02150804090404F
S1130190E1F700C0000018C08EEF0E9482002FEF2C
S11301A080E792E0215080409040E1F700C00000D9
S11301B080E00E9482002FEF80E792E0215080408F
S11301C09040E1F700C000009091000181E091119E
S11301D080E080930001FF91EF91BF91AF919F91D7
S11301E08F917F916F915F914F913F912F910F90DC
S11301F00FBE0F901F9018953898E9E6F0E08081C3
S11302008260808380818E7F8083E89AE09A7894EC
S11302100E948A000E946E002AEA36EE86E991E086
S11302202150304080409040D9F70000E899F4CF45
S10B0230E89AF2CFF894FFCF25
S9030000FC
